{
  "contractName": "Addition",
  "abi": [
    {
      "inputs": [
        {
          "internalType": "uint8",
          "name": "y",
          "type": "uint8"
        },
        {
          "internalType": "uint8",
          "name": "z",
          "type": "uint8"
        }
      ],
      "name": "addx",
      "outputs": [],
      "stateMutability": "nonpayable",
      "type": "function"
    },
    {
      "inputs": [],
      "name": "retrievex",
      "outputs": [
        {
          "internalType": "uint8",
          "name": "",
          "type": "uint8"
        }
      ],
      "stateMutability": "view",
      "type": "function"
    }
  ],
  "bytecode": "0x608060405234801561001057600080fd5b506101f6806100206000396000f3fe608060405234801561001057600080fd5b50600436106100365760003560e01c806336718d801461003b578063ac04e0a014610057575b600080fd5b610055600480360381019061005091906100f2565b610075565b005b61005f61009e565b60405161006c9190610141565b60405180910390f35b8082610081919061018b565b6000806101000a81548160ff021916908360ff1602179055505050565b60008060009054906101000a900460ff16905090565b600080fd5b600060ff82169050919050565b6100cf816100b9565b81146100da57600080fd5b50565b6000813590506100ec816100c6565b92915050565b60008060408385031215610109576101086100b4565b5b6000610117858286016100dd565b9250506020610128858286016100dd565b9150509250929050565b61013b816100b9565b82525050565b60006020820190506101566000830184610132565b92915050565b7f4e487b7100000000000000000000000000000000000000000000000000000000600052601160045260246000fd5b6000610196826100b9565b91506101a1836100b9565b9250828201905060ff8111156101ba576101b961015c565b5b9291505056fea2646970667358221220c91b0c3d7ddfbf7d8c285e3aafff776074b2edb235ddc2d7d371ebc4165074cb64736f6c63430008130033",
  "immutableReferences": {},
  "source": "// SPDX-License-Identifier: Apache-2.0 OR MIT\npragma solidity ^0.8.19;\n\ncontract Addition {\n   uint8 x;\n\n   function addx(uint8 y, uint8 z ) public {\n      x = y + z;\n   }\n   function retrievex() view public returns (uint8) {\n      return x;\n   }\n}\n",
  "sourcePath": "/run/media/rogerio/BK-RAG-HP1TB/repositorios/Dropbox/doutorado/producao/publications/minicursos/2023/DLT-Blockchain/minicurso-blockchain-seinfo-2023/aulas/md/praticas/src/testdapp/contracts/Addition.sol",
  "compiler": {
    "name": "solc",
    "version": "0.8.19+commit.7dd6d404.Emscripten.clang"
  },
  "schemaVersion": "3.4.11",
  "updatedAt": "2023-04-20T16:35:55.677Z",
  "devdoc": {
    "kind": "dev",
    "methods": {},
    "version": 1
  },
  "userdoc": {
    "kind": "user",
    "methods": {},
    "version": 1
  }
}